{
  "contractName": "InvoiceToken",
  "abi": [
    {
      "anonymous": false,
      "inputs": [
        {
          "indexed": true,
          "internalType": "address",
          "name": "to",
          "type": "address"
        },
        {
          "indexed": false,
          "internalType": "uint256",
          "name": "amount",
          "type": "uint256"
        }
      ],
      "name": "Mint",
      "type": "event"
    },
    {
      "inputs": [
        {
          "internalType": "address",
          "name": "",
          "type": "address"
        }
      ],
      "name": "balances",
      "outputs": [
        {
          "internalType": "uint256",
          "name": "",
          "type": "uint256"
        }
      ],
      "stateMutability": "view",
      "type": "function",
      "constant": true
    },
    {
      "inputs": [
        {
          "internalType": "address",
          "name": "to",
          "type": "address"
        },
        {
          "internalType": "uint256",
          "name": "amount",
          "type": "uint256"
        }
      ],
      "name": "mint",
      "outputs": [],
      "stateMutability": "nonpayable",
      "type": "function"
    },
    {
      "inputs": [
        {
          "internalType": "address",
          "name": "user",
          "type": "address"
        }
      ],
      "name": "balanceOf",
      "outputs": [
        {
          "internalType": "uint256",
          "name": "",
          "type": "uint256"
        }
      ],
      "stateMutability": "view",
      "type": "function",
      "constant": true
    }
  ],
  "bytecode": "0x608060405234801561000f575f80fd5b506103748061001d5f395ff3fe608060405234801561000f575f80fd5b506004361061003f575f3560e01c806327e235e31461004357806340c10f191461007357806370a082311461008f575b5f80fd5b61005d6004803603810190610058919061021a565b6100bf565b60405161006a919061025d565b60405180910390f35b61008d600480360381019061008891906102a0565b6100d3565b005b6100a960048036038101906100a4919061021a565b610177565b6040516100b6919061025d565b60405180910390f35b5f602052805f5260405f205f915090505481565b805f808473ffffffffffffffffffffffffffffffffffffffff1673ffffffffffffffffffffffffffffffffffffffff1681526020019081526020015f205f82825461011e919061030b565b925050819055508173ffffffffffffffffffffffffffffffffffffffff167f0f6798a560793a54c3bcfe86a93cde1e73087d944c0ea20544137d41213968858260405161016b919061025d565b60405180910390a25050565b5f805f8373ffffffffffffffffffffffffffffffffffffffff1673ffffffffffffffffffffffffffffffffffffffff1681526020019081526020015f20549050919050565b5f80fd5b5f73ffffffffffffffffffffffffffffffffffffffff82169050919050565b5f6101e9826101c0565b9050919050565b6101f9816101df565b8114610203575f80fd5b50565b5f81359050610214816101f0565b92915050565b5f6020828403121561022f5761022e6101bc565b5b5f61023c84828501610206565b91505092915050565b5f819050919050565b61025781610245565b82525050565b5f6020820190506102705f83018461024e565b92915050565b61027f81610245565b8114610289575f80fd5b50565b5f8135905061029a81610276565b92915050565b5f80604083850312156102b6576102b56101bc565b5b5f6102c385828601610206565b92505060206102d48582860161028c565b9150509250929050565b7f4e487b71000000000000000000000000000000000000000000000000000000005f52601160045260245ffd5b5f61031582610245565b915061032083610245565b9250828201905080821115610338576103376102de565b5b9291505056fea26469706673582212203ea13efa53db76d88f1b451a2f13b0633b7f36a3237c0840eced71e24240ba3f64736f6c63430008150033",
  "immutableReferences": {},
  "source": "// SPDX-License-Identifier: MIT\npragma solidity ^0.8.20;\n\ncontract InvoiceToken {\n    mapping(address => uint256) public balances;\n\n    event Mint(address indexed to, uint256 amount);\n\n    function mint(address to, uint256 amount) public {\n        balances[to] += amount;\n        emit Mint(to, amount);\n    }\n\n    function balanceOf(address user) public view returns (uint256) {\n        return balances[user];\n    }\n}",
  "sourcePath": "/Users/deepaganesh/Projects/tokenized_invoice_lending_platform/invoice_contract/contracts/InvoiceToken.sol",
  "compiler": {
    "name": "solc",
    "version": "0.8.21+commit.d9974bed.Emscripten.clang"
  },
  "schemaVersion": "3.4.16",
  "updatedAt": "2025-07-22T19:12:33.537Z",
  "networkType": "ethereum",
  "devdoc": {
    "kind": "dev",
    "methods": {},
    "version": 1
  },
  "userdoc": {
    "kind": "user",
    "methods": {},
    "version": 1
  }
}